:1000000080120020010900008F400000ED08000070
:10001000ED080000ED080000ED0800000000000001
:100020000000000000000000000000004509000082
:10003000ED08000000000000250B0000ED080000A6
:10004000A10B0000A10B0000A10B0000A10B000000
:10005000A10B0000A10B0000A10B0000A10B0000F0
:10006000A10B0000A10B0000A10B0000A10B0000E0
:10007000A10B0000A10B0000A10B0000A10B0000D0
:10008000A10B0000A10B0000A10B0000A10B0000C0
:10009000A10B0000A10B0000A10B0000A10B0000B0
:1000A000A10B0000A10B0000A10B0000A10B0000A0
:1000B000A10B0000A10B0000A10B0000A10B000090
:1000C000A10B0000A10B0000A10B0000A10B000080
:1000D000A10B0000A10B0000A10B0000A10B000070
:1000E000A10B0000A10B0000A10B0000A10B000060
:1000F000A10B0000A10B0000A10B0000A10B000050
:1001000038B5164803F0BEFE154C204604F058FFE3
:1001100020B9144803F0B6FE002038BD2269A56856
:10012000136843F4005313600D212B680E4A2046D8
:100130009847011E03DA0D4803F0A4FEECE70C48D3
:1001400003F0A0FE4FF400516B6920469847002150
:100150004FF4804005F009F8F4E700BF785700003D
:10016000845300009857000001000600C1570000AA
:10017000EA57000008B5024803F084FE002008BDDD
:100180001F580000014B1B68184700BF00000020EB
:10019000014B1860704700BF0000002030B50446D6
:1001A00085B00D4610220021684605F020F8022394
:1001B0008DF802302A46044B01932146684603F02D
:1001C000ADFB05B030BD00BF850100002DE9F04753
:1001D000058B0446280717460CD501290CBF45F0AE
:1001E000100545F02005258387F31188BFF36F8F35
:1001F000BDE8F087022905F0070540F0948020460D
:1002000003F04DFE052864D801A353F820F000BF89
:10021000E901000027030000D3020000950200005E
:10022000AF020000C102000001F007035A1F012ABB
:100230001FD8002221F00701062BD4F8008089B2D4
:10024000C4E9002209D1434603E0628B0132628394
:100250001B68002BF9D141F002012183204603F0F5
:100260001EFE4FF0000900286DD041F020012183CF
:1002700069E0042B0AD121F0070189B221832046CD
:1002800003F00DFE10B141F0200121834FF0000872
:10029000C14658E02369D3F80090238B23F007036D
:1002A00043F0060323834FF0000846464BE02369E2
:1002B000D3F80490238B23F0070343F00403F1E702
:1002C0002369D3F80890238B23F0070343F0050339
:1002D000E8E74FF00008C146E7E7012243F00803D2
:1002E000238387F31188BFF36F8F002A3BD1B8F1C6
:1002F000000F4AD1B9F1000F02D02D492046C8475E
:10030000EFF31187202383F31288BFF36F8F238BC2
:1003100023F008039BB22383D9063FD523F01002B4
:10032000228303F007056669218B002EBFF67CAFA0
:100330000023D4F8008021F00701C4E9003341F024
:10034000010121839946238B03F0070AAA4502D0B5
:10035000A268002AC1D1B8F1000F02D1B9F1000F93
:10036000DAD00022BAE7A1680029C0D00D680029C0
:10037000BDD04F68334652462046B8471DB12B6862
:1003800029461D46F3E72B46FAE7414633465246D7
:100390002046D8F8008003F0AEFDA8E79A067FF566
:1003A00023AF23F02002228303F0070527E700BFD5
:1003B000233F0000014B03600020704748560000B7
:1003C00080B505460E461746984603F093F8034657
:1003D00000F0F8FBDFF81890044649F80030424678
:1003E00030463946A84754F8090000F085FB00BFA5
:1003F0000800000008B50348034A0021121A03F060
:100400003EFE08BD30010020C00400200748084A15
:10041000084908B5121A03F034FE0748074A08498C
:10042000BDE80840121A03F02CBE00BF00000020F7
:100430002C010020005D00000000002000000020D2
:10044000005D000038B505460C4699B1D1E901239D
:100450000F48096803F016FDD4E90423E1680D484C
:1004600003F010FDE1690C4803F00CFDA1690B4895
:1004700003F008FD012D05D1EFF30581084810397F
:1004800003F000FD21462846BDE8384002F064BA7A
:100490005A5800008A580000BA580000CA58000094
:1004A000F958000030BFFFF7FDBF00BF2DE9F04154
:1004B0000B4EDFF8308006EB0807CC1B05463246B2
:1004C0000949204604F085FEA01942460021083C57
:1004D00004F08DFEC5F8A44007F10800BDE8F081E6
:1004E0000000000004000000385600002DE9F84329
:1004F000324D804632488946174603F0C3FCAB6A4A
:10050000DE0622D52F4803F0BDFC1124AB6A1D077F
:1005100003D52D4803F0B6FC1224284DAB6A98078A
:1005200015D52A4803F0AEFC6E6BAB6A190642D5AE
:100530002748314603F0A6FCB9F1000F03D0AB6A9F
:1005400023F08003AB62132403E01024DEE76FF096
:1005500015061A4DAB6ADA0703D51E4803F092FC64
:100560001424AB6A9B0603D51B4803F08BFC1524AF
:10057000124B9A6AD50602D49A6A90070AD55B682C
:10058000190507D54146304600F068FA10B180F3EE
:1005900009880224094B9A6A920642BF5A6A22F4D9
:1005A00000525A629A6A42F0FF029A6200233B703C
:1005B0002046BDE8F8836FF01506C4E700ED00E0C3
:1005C0000D59000024590000585900006C590000D2
:1005D000855900009C590000BC59000010B51D4C05
:1005E0001D4803F04FFCA36A990130D51B4803F066
:1005F00049FC1E20A36ADA0103D5194803F042FC26
:100600001F20144CA36A1B0303D5164803F03AFCC1
:100610002120A36A590303D5134803F033FC222099
:100620000C4CA36A9A0303D5104803F02BFC23203B
:10063000A36ADB0303D50E4803F024FC2420054AFB
:10064000936A6FEA03436FEA1343936210BD1D2060
:10065000D0E700BF00ED00E0EC590000055A0000B3
:10066000195A0000345A0000535A0000795A000009
:10067000945A000070B5244C064624480D4603F0F9
:1006800001FCA36AD90435D5214803F0FBFB1720F0
:10069000A36A1A0503D51F4803F0F4FB18201A4C6F
:1006A000A36A9B050FD51C4803F0ECFBA16BA36A62
:1006B000180407D5194803F0E5FB1EB1A36A23F41B
:1006C0000043A3621920104CA36A590503D51448AE
:1006D00003F0D8FB1A20A36ADA050DD5114803F000
:1006E000D1FB1B20084A936A43F47F4393620023A3
:1006F0002B7070BD1620CBE7A36A9B04F2D50A4885
:1007000003F0C0FB1C20EDE700ED00E0C05A000044
:10071000D75A000058590000E95A0000035B000056
:10072000195B0000355B0000BC5900002DE9F04169
:100730005D4B5F688AB00446C7F30806002585F361
:100740001188BFF36F8F02F07F43B3F17F4F06D163
:1007500002F00C03082B13D1544803F093FB00253F
:100760002C464FF00008F31E8DF80780092B00F28D
:100770008C80DFE803F00A80847C8A8A8A8A8A88EF
:1007800010074CBF0C460125EBE74948464E03F0E5
:1007900079FB8DF80780F36A9A0704D5454803F082
:1007A00071FB00232AE0F36A002B01DA4248F6E7E6
:1007B000F36A5B00F5D5414803F064FB7369A269F5
:1007C00043F480737361BFF34F8FBFF36F8F32F8C1
:1007D000023C726922F480727261BFF34F8FBFF3E3
:1007E0006F8F03F47F42B2F55F4F27D1DBB2022B4C
:1007F00024D12168324803F045FB23689DF8072087
:10080000CAB902AE04F1200720686168324603C20B
:100810000834BC421646F7D1099A002D41D0C2F3E4
:10082000080121B96FEA52226FEA4222099202A915
:100830001846FFF707FE0AB0BDE8F0811A4B9A6A26
:10084000D2B232B10DF1070201212046FFF74EFE70
:100850000FE09A6A12F47F4F05D00DF107010120D5
:10086000FFF708FF05E09B6AB3F5803F99D3FFF7D8
:10087000B5FE0346C2E70DF107020021E5E70DF1E1
:1008800007010020ECE70F4889E70F4B0F4910489C
:1008900017F4F87FA6F1100208BF194603F0F2FA28
:1008A0007FE76FF30802C1E700ED00E07C5B00002A
:1008B000A85B0000C05B0000E25B0000F15B000091
:1008C000115C00002E5C00004E5B0000635B0000CA
:1008D000535C0000044B5A6942F010025A615A6995
:1008E00022F008025A61704700ED00E0EFF3088043
:1008F000EFF3098101B57246FFF718FF01BD00BF94
:100900000D4880F3088800200C49087001F052FA65
:10091000202080F311880A484FF40461401880F3C6
:100920000988EFF314800221084380F31488BFF391
:100930006F8F00F05BF8000080120020BB040020E5
:10094000C00400201EF0040F0CBFEFF30880EFF38B
:100950000980816911F8021C0229FFD001B5724695
:1009600003F091FB01BD00BF40B2002807DB044A41
:100970004109012300F01F00834042F821307047F5
:1009800000E100E0054B420900F01F0053F822206F
:10099000012303FA00F01040704700BF00E100E0BF
:1009A00040B20028A8BF00F1604001F10101B8BFCA
:1009B000064B4FEA4111ACBF00F5614000F00F005B
:1009C000C9B2B4BF195480F80013704714ED00E0A9
:1009D000044B054A23F07F039360BFF34F8FBFF3AF
:1009E0006F8F70470000000000ED00E008B5FFF7D2
:1009F000EFFF0B4AD2F8883023F47003C2F8883036
:100A0000EFF3148323F0040383F31488BFF36F8F91
:100A1000FFF7F0FCFFF7FAFC00F0B6F802F066F81A
:100A200000ED00E042F8203C009B42F81C3C0A49E3
:100A3000019B42F8183C029B42F8143C21F0010152
:100A40004FF0807342F8043C42F8081C0023203A1F
:100A50000265C0F8A8307047C10300000A4A034687
:100A6000906878B113F1160FD0F8940005D0A0F17A
:100A70004002934205D3834203D2814228BF002023
:100A800070470020704700BF8804002008B5154655
:100A90000C4A0D4B9060D0F8A4201A600E4600F06E
:100AA000A3F82C4686F309880020044B984720467B
:100AB000002100220023024C20470000AB40000030
:100AC000C10300008804002080030020014B102295
:100AD0001A61704700ED00E0054B5A699B689A4225
:100AE0001FBF044A536843F080535360704700BFF0
:100AF0008804002000ED00E0084B9B6883420BD186
:100B0000EFF3058343B1064B5A6842F080525A60B6
:100B10005A6A22F400425A6204F094BA880400200F
:100B200000ED00E015498A684FF030001044EFF303
:100B3000098C80E8F01F202080F31288BFF36F8FAC
:100B40000F4F4FF000664A698A603E60D2F8A400F9
:100B50000C4C2060D2F8A8000023C2F8A83080F323
:100B6000118804B5104600F03FF8BDE8044002F1DA
:100B7000300090E8F01F8CF309887047880400204B
:100B800004ED00E080030020044800232021C21867
:100B90000133302B82F80013F9D1704700E100E0F7
:100BA00008B5EFF30583064A103B02EBC30152F888
:100BB000330049688847BDE80840FFF78DBF00BF94
:100BC000F4530000014800687047000080030020D3
:100BD000024B034A0348012100F078B800000420CA
:100BE0000000002048560000D0F89430054A403BF1
:100BF0001360054B4021C2E901131046012100F0AA
:100C00006FB800BF8403002000000B15084AC2F82B
:100C100098000B6823F01F03034343F01003C2F84E
:100C20009C308B6843F00103C2F8A030704700BFCE
:100C300000ED00E02DE9F043DFF8608085B00E465E
:100C40001F4604464FF00009B14523DA6068D8B169
:100C50003FB1411E08421BD11F2819D923681942F0
:100C600016D12368019303F043FAA3680343039367
:100C7000D8F89050C5F30725D0B2013DA84207D857
:100C800001A9FFF7C3FF421C09F101090C34DBE79E
:100C90006FF01502104605B0BDE8F08300ED00E0EE
:100CA000044B0522C3F89420BFF34F8FBFF36F8F1F
:100CB000704700BF00ED00E0BFF35F8F024B0022E2
:100CC000C3F89420704700BF00ED00E010B5034C5E
:100CD00001232278FFF7AEFF207010BDB80400207A
:100CE00008B50B4A00231278FFF7A4FF10F1160F86
:100CF00007D0084A0021D2F89030C3F30723984266
:100D000000DB08BDC2F89800C2F8A0100130F2E77D
:100D1000B804002000ED00E02DE9F0435A4B5B4D94
:100D2000D3F890302C68C3F307239C4285B000F2BF
:100D3000A780FFF7C1FF00200C2684421AD1544E31
:100D4000DFF8449134706846FFF734FB514C524D44
:100D500080460027B84514D133784B490020D1F89C
:100D60009020C2F307229342C0F28480FFF798FFDD
:100D7000002045E0696806FB0011FFF747FF0130DE
:100D8000DBE7009800EB07114FEA071CCB68234014
:100D9000B3F5000F4DD00AD8B3F5001F33D0B3F52B
:100DA000800F3BD0B3F5801F13D00137D2E7B3F1EA
:100DB000007F47D0B3F1805F4DD0B3F1807FF4D195
:100DC00050F80C3088684A6803F092F940F0887057
:100DD00009E050F80C3088684A6803F089F940F05F
:100DE000885040F43020CDE901230390D9F89030A9
:100DF0003078C3F30723013B984234D96FF01500D4
:100E000005B0BDE8F08350F80C3088684A6803F0FC
:100E10006FF940F0885040F40020E4E750F80C30BF
:100E200088684A6803F064F940F0C06040F400301C
:100E3000D9E750F80C3088684A6803F059F940F057
:100E40008270D0E750F80C3088684A6803F050F997
:100E500040F48020C7E750F80C3088684A6803F0F7
:100E600047F92843BFE701A9FFF7D0FE33780133E4
:100E700033709AE7C1F89830C1F8A00001336EE7EB
:100E80004FF0FF30BCE700BF00ED00E0545600001B
:100E9000B80400200000F0FF0000021108B5024B6A
:100EA0001B689847002008BD90030020034B044AAC
:100EB0001860937843F0020393707047900300200A
:100EC0000400002008B50649064821F00701C1F1D9
:100ED000005202F5802202F092FF002008BD00BF00
:100EE000C7120020940300200C4B0122C3F84025B8
:100EF0004FF080434FF08051C3F87825D1F830018E
:100F0000082805D1D1F83411022908BFC3F83826C2
:100F10000122C3F880250020704700BF00E0014097
:100F200048B1054B054A1B68B3FBF2F35843044B29
:100F300043F00103184770470C01002040420F00A6
:100F40004056000008B5054A054B136010463F2384
:100F5000536001F005F8002008BD00BFA003002089
:100F6000FFFF0F00084B70B5C31A0D4607499B10D1
:100F7000044659430648402203F0D8F82B46014660
:100F80002046BDE870401847BC030020B76DDBB6B3
:100F90004C53000073B50C4C0C4A4023041B0093C7
:100FA0000D460B460A49A41061430646094803F062
:100FB000E8F8014628B130462B4602B0BDE8704043
:100FC000184702B070BD00BFBC030020F141000013
:100FD000B76DDBB64C5300000022F8B50121054681
:100FE0001046FFF7DDFC104800F0E2FF0446B8B9F8
:100FF00000F0FEFF2F690D49384602F09FFF031EE7
:1010000009DB01263E642D69084905F11C0002F048
:1010100095FF031E02DA1C462046F8BDEE64FBE78E
:101020006FF00404F8E700BF591100007456000087
:101030001FB500220123CDE902236C46074A6B4607
:10104000CDE9004403F0CDF828B94FF480420023E5
:10105000684601F0A7FE04B010BD00BF03420000C7
:1010600010B5EFF31184202383F31288BFF36F8F41
:10107000074A136823F00201DB07116002D4012044
:1010800003F068FB84F31188BFF36F8F10BD00BFBE
:101090000C04002030B4104B0C2202FB003301463C
:1010A0000020D3E90E529863EFF31180202484F3DB
:1010B0001288BFF36F8F1C6C04F0C00444F002046C
:1010C0001C6480F31188BFF36F8F1DB12B4603485A
:1010D00030BC184730BC7047BC0300204C530000A4
:1010E00010B4EFF31180202282F31288BFF36F8FC8
:1010F00017490B6843F0020413F001030C601AD087
:101100004FF08043D3F80C14D3F80C3413F00103E0
:1011100011D0EFF3118182F31288BFF36F8F0D4A64
:10112000136C03F0C00343F00203136481F31188CE
:10113000BFF36F8F012380F31188BFF36F8F1BB153
:1011400010BC0020FFF7A6BF10BC012003F0FABAC4
:101150000C040020BC03002010B1012804D070470B
:10116000034B1B6C5B0701D1FFF794BF704700BFB7
:10117000BC030020024AC3B21C2000FB03207047BE
:10118000BC0300202DE9F0413849BFF35B8F804656
:10119000012251E8003F41E800200028F9D1BFF3C7
:1011A0005B8F33B9324933484B60CB608A6002F0C1
:1011B000D8FE08F1FF33012B4BD8B8F1010F07D14E
:1011C0004FF08043D3F81C3403F00303012B40D0CD
:1011D00003F032FF054658B1EFF31186202383F365
:1011E0001288BFF36F8F0125234F4FF080441EE01C
:1011F000224B1B78002BEFD04FF080430222C3F824
:1012000008230646F0E735B3304602F062FFD4F813
:10121000183563B9D4F804214AB1C4F80431D4F8BC
:1012200004310123C4F81835C7F88031A360D4F81D
:101230001824D4F81834D203E5D503F00303012BA6
:1012400002D0B8F1010FDED155B186F31188BFF39A
:101250006F8FBDE8F0810021212003F086FFD6E7E3
:101260004FF080430222C3F80423F2E7B8030020C2
:10127000A8030020D803002000E100E0BB04002008
:1012800008B5074803F09CFE38B10648FFF70EFE8C
:101290000448FEF77DFF002008BD6FF01200FBE759
:1012A000A0530000A91200000A2838B5074D0446D3
:1012B00004D1AB680D215B6828469847AB680348AA
:1012C0005B68E1B29847204638BD00BFA0530000DC
:1012D0002DE9F043476840F20636D0063B7C87B0E4
:1012E00002EA060654BFC2F3401C4FF0030C01F0A3
:1012F0001F05B6F5837F144645EA43158DF803C0F4
:1013000044D00DD8062E16D005D8A6B1022E3FD057
:101310006FF0150037E0B6F5807FF9D101260AE0BD
:1013200040F20222964235D0B6F5407F34D0B6F571
:10133000007FEDD10226220330D57A6801238B404D
:10134000C2F80835B868A0BB05F01F036D092DD0A1
:10135000012D77D13E4A02EB8302C4F30043D2F859
:10136000001783F00103C4F3404444EA430421F42A
:10137000E16144EA8C0421F0070144EA06230B43AF
:10138000C2F80037002007B0BDE8F0830726D2E797
:101390000426D0E70526CEE70326CCE7630341BF4A
:1013A00001237A688B40C2F80C35CBE74FF0A0429E
:1013B000D1E70DF10202294603F03CFC14F4403F52
:1013C00080460CD1B868294603F069FCB8F1000FDB
:1013D000D8D19DF80210B86800F0A0FFD2E74FF016
:1013E000000901ABCDE90199CDE90439CDF80C90A4
:1013F000B86803AA294603F0F2FA4845C2DB14F4A0
:10140000003314D0C4F300449DF803308DF80E303F
:1014100084F001048DF80C608DF80D40B8684B46DF
:1014200003AA294603F08EFB0028CFDAAAE7CDE90C
:1014300004330DF103030393B86803AA294603F0AC
:10144000CEFAF1E703F5E07350F82330FFDE00BF7A
:1014500000030050420970B5034602D0012A17D09C
:1014600070BD0D4E326951680029F9D003F01F0399
:1014700001250C689D400029F2D08A682A4002D0DC
:101480004B68304698472CB1236821461C46F2E74A
:10149000024EE7E72346F8E7845300006853000054
:1014A00038B54568A86890B103F0F3FB014670B900
:1014B000A86803F0D2FB044658B902460649A8685A
:1014C00003F0B5FB224605210620FFF769FA00204C
:1014D00038BD6FF00400FBE755140000F0B5456817
:1014E0001646A8682A7C01F01F0487B044EA42141B
:1014F000002869D0B6F5001F04D1214603F022FC74
:10150000002052E001AA0020B6F5800F0190506043
:1015100037D1B3F1007F14BF052304238DF80430C5
:101520000023CDE904230393EB6823FA01F111F0C2
:1015300001010DF103073AD1B6F1A07F37D104F0D4
:101540001F03620903F5E07326D0012A3FD1214A27
:1015500052F82330DB072AD4A8683A46214603F024
:1015600069FB16301BD00297A86803AA214603F036
:1015700036FA002819DBA8680122214603F091FB06
:10158000BEE7B3F1C06F05D0B3F1007F14BF0123F4
:101590000223C3E70323C1E74FF0A042D8E7A868BE
:1015A000394600F0C1FE0028DDDA07B0F0BDA868BA
:1015B0003A46214603F03EFB0028D5D19DF80310A2
:1015C000A86800F0ABFECFE76FF08500EDE751F8BB
:1015D0002330FFDE00030050036803F01F025B09A5
:1015E000026004D0012B034818BF002070474FF061
:1015F000A0407047000300502DE9F04F00EB810937
:10160000654985B01546834640F2FF1AD94503D196
:10161000002005B0BDE8F08FDBF80020C2F3C7283A
:1016200018F00808C2F3C320C2F3080440F0B180E8
:101630005A4B544508BF4FF0FF34B2F10C5F1E5CAB
:101640004FEA126015D2222815D8DFE800F01727DC
:101650002B382E3438141414143E48141414141453
:10166000141414144B86898C1414148F9396999C1B
:101670009F004E2826D06FF08500CAE7C5F80C45BC
:10168000621C67D003A80394FFF7A6FF039A012703
:1016900007FA02F2C0F80825384639E0C5F81445C3
:1016A000002718E0C5F80845EAE7C5F8084500270F
:1016B000601C22D14EE0C5F80C450127F8E7C5F8BB
:1016C0001045EDE7C5F81445DAE7C5F80845002EE2
:1016D000E6D100270626631C3CD0002018E0C5F8A0
:1016E0000C45F4E7C5F86045BBF80220671C02F022
:1016F00001022FD0002AC5D1012703A80394FFF7C8
:101700006BFF039A8446012000FA02F2CCF80C2504
:10171000DBF80020019202F4004CBCF1000F08BF7E
:10172000804603A818BF01270394FFF755FF039CC9
:10173000019A00EB8400C2F3412CD0F8004732023A
:1017400042EA8C0242EA08020C40224342EA470283
:10175000C0F800270BF1040B58E7C5F86445C3E750
:10176000C5F86845C0E7C5F86C45BDE7C5F8244530
:101770000127B0E7C5F8284582E7C5F83045F7E707
:10178000C5F83445F4E7C5F83845F1E7C5F83C45F8
:1017900076E76FF015003CE7F0F8FCFFE35C000033
:1017A000014B01221A60704700C000400C290369F8
:1017B0000BD15B6A064907484B4393FBF0F100FBF2
:1017C000113311605360002070476FF0850070473F
:1017D00090D0030040420F00044B00690022C3F880
:1017E0000021D3F8003101F0A9BA00BF00C00040C9
:1017F0007FB50569AB6A63B321F040010C292BD199
:1018000005F110064FF0FF324FF0FF33304601F084
:10181000D3F9134B0193A86A032300246946039468
:10182000029302F09EFB4FF0FF324FF0FF33284649
:1018300001F0B8FAA86A02F0DFFB0A4BD3F80825DA
:101840006A6201225A60304601F028FA204604B04C
:1018500070BD6FF00A00FAE76FF08500F7E700BF90
:10186000A117000000C0004010B504690020FFF778
:1018700081FCA0624FF0FF320021204603F0D0FB34
:1018800004F1100003F0C5FB002201210C20FFF73A
:1018900087F80C20FFF768F8024B0122C3F80423F5
:1018A000002010BD00C000402DE9F041044647680B
:1018B0000D4603F0C1FB88B14FF02008EFF311860D
:1018C000314688F31288BFF36F8F606802F025FEFF
:1018D00050BB86F31188BFF36F8FEFE71F4B1B7868
:1018E000002BE9D04FF020086426606802F015FE56
:1018F00070B9012002F0D5FE013EF6D10021212071
:1019000003F033FCF0E786F31188BFF36F8FF5E740
:10191000EFF31186314688F31288BFF36F8F60684A
:1019200002F0FBFD0028EED0BB691D706368BA6948
:101930001B680020C3F844250122C3F84825C3F8DA
:101940002001D3F82041C3F85801D3F858019A6018
:1019500081F31188BFF36F8FBDE8F081BB040020D5
:1019600070B5012383400F4ABFF35B8FDC4352E81D
:10197000001F01EA040542E80056002EF7D1BFF32C
:101980005B8F4FF4803282400748C0F80823BFF3D2
:101990005F8FBFF36F8F03EA0100003818BF01208B
:1019A00070BD00BF640400200010014070B41249F3
:1019B000D1E90034D01AC31844F1000422F07F4664
:1019C000C1E90034A6F50013B3F5400F09D20B4B63
:1019D0001B681A0A1B069C19094B42F10005C3E952
:1019E0000045EFF31181202383F31288BFF36F8F3B
:1019F00070BC01F015BF00BF40010020680400204A
:101A00004801002011B3BFF35B8F0123104A8340CC
:101A100052E800CF4CEA030C42E800C10029F7D19C
:101A2000BFF35B8F0B4A4FF480338340C2F804331B
:101A3000094BBFF35B8F1B68BFF35B8FC340DB07B2
:101A400042BF064B4FF40032C3F80021704700BF7D
:101A500064040020001001406004002000E100E068
:101A60000D4B1868010A0006BFF35F8F0B4BD3F8CC
:101A70000435181841F10001B3F5801F0AD2084B54
:101A8000D3E90023904271EB030303D210F180707D
:101A900041F10001704700BF6804002000100140C0
:101AA000480100202DE9F04F85B016461F469DF8ED
:101AB00040A00446FFF754FF0190FFF7D1FFB0426A
:101AC00071EB07035ED23E4B301A67EB010198427F
:101AD00071F1000109D36FF0150520460199FFF758
:101AE00091FF284605B0BDE8F08F364B03EB041399
:101AF000D3E902239F4208BF964254D032494FF4A3
:101B0000803804F1500508FA04F8AD00C1F84883A4
:101B10002046ADB202F0A9FD26F07F4B05F18045CD
:101B200004F5A87305F58835DC464FF003090293E8
:101B3000029A2CF07F4341F82230C1F84483D1F857
:101B40000435224A6FF00200C01A604420F07F4042
:101B5000904228D9286868B1D1F804350393A3EBE3
:101B60000B0020F07F40B0F5000F1CD9204602F09A
:101B70007CFD039BBAF1000FADD109EB030C09F119
:101B80000109D5E7BAF1000FA5D10123104ABFF32F
:101B90005B8FA34052E8000F184342E80001002980
:101BA000F8D1BFF35B8F07490E98230101EB0412B4
:101BB000C8500F9B5360C2E9026700258DE700BF44
:101BC000010080003001002000100140FDFF7F0077
:101BD000600400207FB51C4C1C4BC4F80833C4F8CB
:101BE00048331B4B00254FF0FF304FF0FF31C4F856
:101BF0000855C3E902014FF48033C4F80433154B90
:101C000002264FF400320121C4F804631120C3F806
:101C100080212A46FEF7C4FE1120FEF7A5FE0E4ADB
:101C20000123A360236013600C4B0D4A0093CDE9A0
:101C3000015500232846FFF735FF3046FFF7A2FA8B
:101C4000284604B070BD00BF0010014003000F0023
:101C50003001002000E100E064040020AD19000024
:101C6000FFFF7F002DE9F7432E4CD4F8043399078A
:101C70000BD5D4F8043143B12B4A0023C4F8043106
:101C8000D4F80431136801331360D4F80433DA0351
:101C900043D5BFF35B8F254B53E8002F22F00101A2
:101CA00043E800100028F7D1BFF35B8FD30702D4BD
:101CB000D4F840318BB30025C4F84051D4F84031FA
:101CC000FFF7CEFEEFF31182202383F31288BFF3D8
:101CD0006F8F174BD3E90267B042B94120D34FF061
:101CE000FF304FF0FF31C3E90201D3E900981D60D6
:101CF0004FF48033C4F84833C4F84051D4F840312D
:101D000082F31188BFF36F8FB9F1000F05D0CDF8C2
:101D1000008032463B460020C84703B0BDE8F08350
:101D2000A946EDE70010014068040020600400208F
:101D30003001002030B5431C124C85B005D08442E0
:101D4000A8BF0446012CB8BF0124FFF789FE0E4B43
:101D50000C4DD3E90013401AB0F5000F10D2221831
:101D6000AA4228BF2A4652184FF0000007490091A6
:101D7000CDE9010043F10003FFF794FE05B030BD4B
:101D80002A46F0E7FFFF7F0040010020AD19000068
:101D900008B5FFF765FE024B1B68C01A08BD00BFFF
:101DA00040010020024AD2F80034002BFBD07047DB
:101DB00000E0014010B54FF08053D3F83021082ADD
:101DC0004ED14FF080420021C2F80C11C2F8101120
:101DD000C2F8381502F54042D3F80414C2F82015B1
:101DE000D3F80814C2F82415D3F80C14C2F8281537
:101DF000D3F81014C2F82C15D3F81414C2F8301507
:101E0000D3F81814C2F83415D3F81C14C2F84015CE
:101E1000D3F82014C2F84415D3F82414C2F8481596
:101E2000D3F82814C2F84C15D3F82C14C2F8501566
:101E3000D3F83014C2F85415D3F83414C2F860152E
:101E4000D3F83814C2F86415D3F83C14C2F86815F6
:101E5000D3F84014C2F86C15D3F84434C2F8703586
:101E600002F00FFC18B1374B374AC3F88C2602F04A
:101E700008FC18B1354BFB22C3F8182502F001FC11
:101E800058B14FF080424FF08051D2F8E43ED1F883
:101E9000581261F30303C2F8E43E02F0F2FB20B1F2
:101EA0002B4B4FF40072C3F840264FF08053D3F809
:101EB0003031082B17D14FF08043D3F80024D207DC
:101EC00044BF6FF00102C3F800244FF08053D3F8F1
:101ED0003431042B81BF4FF01023D3F808224FF088
:101EE0008043C3F858254FF01023D3F80022002A6E
:101EF00003DBD3F80432002B22DA164901234FF01A
:101F00001020C1F804351224FFF74CFFC0F800423E
:101F1000FFF748FFC0F80442FFF744FF0023C1F871
:101F20000435FFF73FFFBFF34F8F0B490B4BCA68D8
:101F300002F4E0621343CB60BFF34F8F00BFFDE7B5
:101F400010BD00BF005000404881030000F0004079
:101F50000090024000E0014000ED00E00400FA05BE
:101F6000014B1860704700BF6C04002010B5054B92
:101F70001868144602F097FB0028A4BF20700020C8
:101F800010BD00BF6C040020024A01238340C2F848
:101F90000435704700F00140014B00201B681847D2
:101FA00070040020014B1B68184700BF700400201C
:101FB00010B50C4C237993B9012323710A4B20608F
:101FC000002818BF184600F049F850B923680748A0
:101FD000002BBDE8104008BF184600F08FB86FF026
:101FE000770010BD70040020991F0000A51F00009D
:101FF00008B5064B1B683BB10020FEF7C3FC18B9BF
:10200000BDE80840FEF7B0BC08BD00BF700400206A
:1020100038B54FF080440123C4F8083363600023CF
:10202000C4F80031D4F8003142F21075D4F80C2411
:10203000D4F80C34D20307D5DB0705D5012002F014
:1020400030FB013DF2D138BD02F093FB0028FAD0FD
:10205000014B00225A71F6E77804002010B50849B8
:102060000C794CB9012308600B7102F082FB08B9AE
:10207000002010BD4C71FBE76FF07700F9E700BF5F
:10208000780400204FF080430022C3F80021D3F8E9
:102090000021094901221A60096811B1C3F804231B
:1020A0007047D3F80021002AFBD00022C3F800219A
:1020B000D3F80031704700BF7804002010B54FF00E
:1020C0008043D3F80423D20715D5D3F8002192B169
:1020D0000022C3F800210121D3F80021C3F808131E
:1020E00002F047FB044B10B15A7922B95971BDE88F
:1020F00010401B68184710BD78040020074A137968
:1021000043B90121106011714FF080421846C2F8A6
:10211000183570476FF07700704700BF80040020CB
:1021200010B54FF080431D4CD3F81814D3F8182481
:1021300011F4803F1AD002F00302012A01D092B9B3
:1021400000224FF08043C3F818250022C3F8042171
:10215000D3F8042101229A6022688AB9D3F80421B5
:10216000002AFBD014E002F015FBE9E7D3F81424B1
:10217000D107E5D5D3F81C249207F4D422681AB10C
:102180000222C3F8042310BDD3F80421002AFBD097
:102190000022C3F80421D3F80431F4E780040020BE
:1021A000F8B54FF08043194FD3F80443012504F0EC
:1021B0001A04002604B9F8BDB4FA84F0C0F11F0077
:1021C000830003F580739BB203F1804305FA00F2AC
:1021D000196892B224EA02040029EBD01E601B6841
:1021E0004FF08043022AC3F808230BD1D3F8181408
:1021F000D3F81814890705D1C3F81855C3F8042378
:102200009D60D7E73B68C0B29847D3E780040020C1
:10221000036803F01F025B09026004D0012B03482E
:1022200018BF002070474FF0A040704700030050D7
:10223000034A430900F01F00D35C1844C0B2704742
:10224000EB5C0000024611F0010030B515D18B07A0
:10225000C1F3400022D51249D1F8200550604FF05B
:102260008052C1F82005D2F83021082A08BFD1F8E1
:102270002025003818BF012010E04FF0A0444FF097
:102280008055D4F820351360C4F82035D5F8305186
:10229000082D08BFD4F82045002BD8D030BD00BF92
:1022A00000030050F7B504460846FFF7C1FF04EBF2
:1022B00040060D46B38ADB072AD5204602F06DFBA7
:1022C0002946204602F0D9FA50B1204602F0EBFA36
:1022D000276807EB80000023C0F81035C0F81035E0
:1022E0002946204602F008FB0021B18201A8019591
:1022F000FFF78EFF019B00EB8300074BD0F8002710
:10230000134043F00203C0F80037084603B0F0BDA5
:102310006FF01500FAE700BFF0F8FCFF014802F08B
:10232000E0B900BF1001002010B504480C4602F0CF
:10233000BAF90028A4BF2070002010BD10010020B1
:102340002DE9F04F074689B057F8049BD9F80413DC
:10235000C9B28346082241F00041484602F0F5FA2E
:10236000051E2FDA0023032106A8CDE90633FFF767
:1023700069FF634B01930DF118084FF0000A019AB1
:10238000604912F8013B0192DA0803F007038A5C06
:1023900022FA03F3DB071CD40AF10103022B08F134
:1023A00004084FF0010AEAD14FF0004100224846EC
:1023B00002F0CBFA032106A8FFF744FF0028D8D18A
:1023C00025F000450124002D40F0848009B0BDE8CF
:1023D000F08F4D4B53440293D8F80060002EDBD0B1
:1023E000029B96FAA6F61C78B6FA86F646EA4414DC
:1023F0002046FFF71DFF0BEB4000F208818A18F81A
:1024000002000594C1F382030393009306F00706CC
:10241000012303FA06F620EA060008F8020005A8E0
:10242000FFF7F6FE059A039B02F5E07211F0100F1C
:1024300050F82260C6F3014633D0009A3846214650
:1024400002F03BFA05A80594FFF7E2FE059B03F5B1
:10245000E073F6B250F82330C3F301439E4207D134
:102460000021204602F0FAF93146204602F0F6F942
:1024700005A80594FFF7CCFE059B012202FA03F3A1
:10248000C0F820354FF08053D3F83031082B01BF0E
:10249000D0F82035D0F82035D0F82035D0F82035C8
:1024A0009AE7022E14BF022103212046039302F073
:1024B000D5F9039B032B03D0022E07D1012BD7D1D3
:1024C000009A2146384602F0F8F9D1E7032ECFD121
:1024D000022BF4E795FAA5F3B3FA83F304FA03F2B7
:1024E00025EA020503F5A2720BEB430359F82220FB
:1024F000B3F87C10C2F30142384602F0DEF962E71D
:10250000FB5C00005C570000FB5C000013B5394B1E
:1025100001930023C0F80431D0F80421C0F824311D
:10252000D0F82421C0F81C31D0F81C21C0F80831A3
:10253000D0F80821C0F800324B6381F82F30012316
:10254000036291F82D209A4218BF83604B6B8A6A10
:10255000934204460ED24A6AD35CC0F81C350B681D
:1025600003B340F286238B608B68C4F804330020E9
:1025700002B010BD91F82C3013B10123C361EEE716
:102580000B6A13F0400F4FF0010316BFC3614361A4
:1025900081F82D30E3E7204602F0D6FB28B1019BFD
:1025A000013B0193019B002BF5DC91F82F0058B9FA
:1025B000019B002BDCDC0023C4F800350523C4F8A4
:1025C00000356FF08B00D3E7D4F8C434C4F8C434BA
:1025D00063B19A075ABF03F001008C386FF0040012
:1025E00013F0040F18BF6FF00A00E1E76FF08B00E3
:1025F000DEE700BFA086010013B5314B0193002335
:10260000C0F80431D0F80421C0F82431D0F82421D6
:10261000C0F81C31D0F81C21C0F80831D0F80821CE
:102620004B6381F82F308B6A012B044617D10B6A5C
:10263000580614D40223C4F800320123236291F80F
:102640002D20022A18BF23600B688BB140F286232D
:102650008B608B68C4F80433002002B010BD0123E6
:10266000E9E7204602F070FB28B1019B013B019392
:10267000019B002BF5DC91F82F0058B9019B002B32
:10268000EBDC0023C4F800350523C4F800356FF0F7
:102690008B00E2E7D4F8C434C4F8C43463B19A07B9
:1026A0005ABF03F001008C386FF0040013F0040FE0
:1026B00018BF6FF00A00E1E76FF08B00DEE700BFA4
:1026C000A086010038B5044690F83200002845D1B4
:1026D000E060C4E9012384F8310084F8350084F80F
:1026E000340081B34B7B84F83C308A7B84F83D20F6
:1026F00032BB0B6803F01F005B0929D0012B30D1DE
:102700001D4A02EB80021D48D2F80037034043F413
:10271000C16343F00403C2F800374B6803F01F05A0
:102720005B0918D0012B21D1134A02EB8502D2F8A4
:102730000037034043F4C16343F00403C2F8003799
:10274000204602F099FB012384F83230002038BD86
:102750004FF0A042D5E74FF0A042E6E76FF07700D8
:10276000F5E700F5E07052F82030FFDE05F5E07582
:10277000002353F82530F8E700030050F0F8FCFF81
:102780000368094AC3F80823D3F8002222F00302A1
:10279000C3F800220022C3F80025012380F832305C
:1027A00080F83420704700BF864204002DE9F041D4
:1027B00090F831308046012B58F804EB04460D4662
:1027C000164605D10B78012B07D16FF076000FE08C
:1027D000022B02D10B78012BF7D11F4BCEF8083317
:1027E00094F8343033B1E368CEF804336FF00F005F
:1027F000BDE8F081C6F3800383F00103DBB284F807
:1028000034306662AC46BCE80F0004F110070FC715
:10281000DCF800303B606B68E362EB68A3626B78C6
:10282000CEF888352B78012B10D06BB9C6F3401643
:1028300084F8306041467046FFF768FE6368002BFD
:10284000D6D184F83430D3E70126F1E7414670460B
:10285000FFF7D2FEF2E700BF86420400036803F0F0
:102860001F025B09026004D0012B034818BF00203F
:1028700070474FF0A040704700030050F7B5064680
:1028800002F075FB084602F072FB01A80196FFF703
:10289000E5FF019B00EB83000C46D0F800372D4983
:1028A000019440F20D650B402B43C0F8003701A89E
:1028B000FFF7D4FF019B00EB83000127D0F800371E
:1028C0000B402B43C0F80037042001F0EAFE092535
:1028D00001A80194FFF7C2FF019AD0F81035D34048
:1028E000DB0715D401A80196FFF7B8FF019B07FA93
:1028F00003F3C0F80C35042001F0D3FE304602F09B
:1029000036FB013D042001F0CCFE15F0FF05DFD1C0
:1029100001A80194FFF7A2FF019A01239340C0F898
:102920000C35042001F0BDFE204602F020FB0420FF
:1029300001F0B7FE01A80194FFF790FF019AD0F8CB
:102940001035D34013F0010F0CBF6FF08B00002047
:1029500003B0F0BDF0F8FCFF38B5EFF3118520238C
:1029600083F31288BFF36F8F064B9C6802F03BFB2A
:1029700085F31188BFF36F8F2046BDE83840FEF71E
:10298000BBB800BF8804002038B50A4B53F820407C
:10299000013053F82050A54200D838BD606830B1EE
:1029A000037EDB0701D402F0F3FA0834F3E723686F
:1029B0009847FAE76057000070B5294B294C2A4D1B
:1029C00086B0012203201A70FFF7DEFF0420FFF714
:1029D000DBFF2646AE4204F130040FD300F066FD63
:1029E000204CAC4226D300F075FDFDF789FB1F4A51
:1029F000938923F00103938106B070BD54F80C3C19
:102A0000059354F8103C049354F8143C039354F881
:102A1000183C029354F81C3C019354F8203C00935A
:102A200054E90A2354E90C0100F0E2F954F8303C6F
:102A30005E65CEE7D4E90A23B3F1FF3F08BFB2F1E8
:102A4000FF3F05D052EA0301206803D100F054FA99
:102A50003034C6E70649183000F002FEF8E700BF40
:102A6000BB040020745500007455000000020020D3
:102A70004551000070B5174E174D184986B0B02368
:102A800003FB0066164B059301220F23CDE90332A9
:102A90000023CDE90133142303FB005504464FF412
:102AA000C07000FB04110F4B00954FF4A07230462C
:102AB00000F09EF9337C0C4AEE6023F0040333747B
:102AC0004FF4046304FB033313442C746B6006B0AF
:102AD00070BD00BF5001002088040020000D0020C0
:102AE000CA5C0000ED4F0000C00400207FB500204C
:102AF000FFF74AFF284B83F30888284C636943F4A7
:102B0000007363610025E02384F82230E5772576A1
:102B10006576A57684F82050636A43F4E023636207
:102B200084F82350FDF7D6FEFDF7D0FF4FF0FF33BA
:102B3000A362E362FEF7F0F8FEF74AF81848194C72
:102B400000F0CCF90120FFF71FFF0220FFF71CFF68
:102B500000F0A4FC144B15495C61154B059301234F
:102B60004FF48062CDE90353CDE90155114B009537
:102B7000204600F03DF9237C064623F0040320465E
:102B8000237402F0B8FA2846FFF774FF094A314669
:102B90002046FDF77BFF00BF000D002000ED00E0A8
:102BA000B00200200002002088040020800E0020D7
:102BB000CF5C0000B92900002DE9F3410446174617
:102BC0001E46EFF31188202383F31288BFF36F8F23
:102BD000304BC2689B6872B18068984217D057EA40
:102BE000060216D188F31188BFF36F8F6FF00F00C4
:102BF00002B0BDE8F08193F90E1021610132C4E901
:102C0000023288F31188BFF36F8F0020F0E721694B
:102C1000F3E793F90E1090F90E30994230DA9942A9
:102C2000A8BF194602F0EDF90546CDE900761A482D
:102C30002246414600F050FB0028E6D0EFF3118613
:102C4000202383F31288BFF36F8FA068D0B123686D
:102C500021699C420AD04BB193F90E309942A8BF2A
:102C600019466FF07F039942B8BF194602F0C9F9BF
:102C700040B10948314602F075FA6FF00A00B7E733
:102C80000025D2E7002DF4D186F31188BFF36F8FB2
:102C9000F3E700BF88040020BC040020F8B5836877
:102CA0000546002B40D0234A926893423FD1C36827
:102CB000012B03D9013BC3600020F8BDEFF311875E
:102CC000202383F31288BFF36F8F0169806802F0BD
:102CD00098F92C68A54207D10023C5E9023387F390
:102CE0001188BFF36F8FE7E7002CF5D0D4E90032ED
:102CF00013605A60237C002623F002032374C4E986
:102D00000066A66004F1180000F042FDAC6094F982
:102D10000E302B612046C4F8AC6002F0ECF9064896
:102D2000394602F01FFAC7E76FF01500C5E74FF00C
:102D3000FF30C2E788040020BC04002070B5EFF328
:102D40001186202383F31288BFF36F8F0468A0429B
:102D50001BD0D4B1D4E9003213605A60237C002523
:102D600023F002032374C4E90055A56004F11800A0
:102D700000F00EFD2046C4F8AC5002F0BCF931461C
:102D80000748BDE8704002F0EDB9D0E902329A423E
:102D900018BF0133836086F31188BFF36F8F70BD56
:102DA000BC04002013B5EFF31181202484F31288B2
:102DB000BFF36F8F846844B1013C846081F3118854
:102DC000BFF36F8F002002B010BD52EA030406D19A
:102DD00081F31188BFF36F8F6FF00F00F3E7CDE938
:102DE00000230246014800F077FAECE7BC0400201B
:102DF0002DE9F04F073285B022F0070204461E4647
:102E00007F3200F15803C0E9163322F03F02129BD3
:102E1000A38100200D46119BDDF838A0139FA06010
:102E200004213F2AC4E906002174A373E07305F16D
:102E30004009A2F1400B05D880F31188BFF36F8FD2
:102E4000084602DF05EB020841462046FDF72EFB4F
:102E50000730109B20F00700C4E9259BC4F89C00B4
:102E600002930F9BA8EB000BCDE900A35A46334613
:102E700029462046FDF7D6FD0F9BA3664FF00008BC
:102E8000109BC4F85480C4E9186AE366EFF311821A
:102E9000202181F31288BFF36F8F0F4D296A2167BC
:102EA0002C6282F31188BFF36F8F8FB11F223946D6
:102EB00004F1740002F0A3F984F89380AB680BB1BD
:102EC000D3F8A030C4F8A030584605B0BDE8F08F64
:102ED00084F87470F2E700BF8804002001230374B3
:102EE00083810023C0E92533C0F8A030014B9860EE
:102EF000704700BF8804002038B50446EFF3118501
:102F0000202383F31288BFF36F8F037C5B070FD5F9
:102F1000183000F03DFC237C23F00403204623748A
:102F200002F0F8F829460548BDE8384002F01AB921
:102F300085F31188BFF36F8F38BD00BFBC0400203C
:102F40000A4A93686FF00A01C3F8AC100849C3F845
:102F5000A8004B6843F080534B60002383F3118833
:102F6000BFF36F8F9368D3F8AC00704788040020DC
:102F700000ED00E038B590F91020037C002A0146EE
:102F800004DA03F07F03037402F07DF80D4D2A4646
:102F9000AB6852F8184F944200D004B9EC688B42E9
:102FA00007D01A7CD20604D1DA897F2A01D9A26916
:102FB0002AB1A34202D0204600F0D2FA23466B6128
:102FC00038BD00BF8804002070B590F91020037C44
:102FD000002A2FDBD9062DD11A4C63F07F0322463D
:102FE000037452F8183FE169934207D1C0E9002108
:102FF0000860E0610FE09942F8D01B68002BF5D023
:1030000093F90E6090F90E50AE42F4DD5968C0E9B4
:10301000003108605860A569954200D005B9E5689F
:10302000A3681A7CD20606D1DA897F2A03D9AA6955
:103030000AB9636170BDAB4202D0284600F090FA35
:103040006561F7E788040020034648B9EFF305827D
:1030500032B9064A51699268914201D0FFF770BFB8
:1030600083F31188BFF36F8F704700BF880400207F
:1030700038B5184CA168E0690B68814214BF1A4644
:10308000002249680B605960A368E1692AB9124AB5
:10309000C3E900210B60E3610AE092F90E5093F955
:1030A0000E00854212DD5168C3E900210B605360B8
:1030B000A569094B9D4200D005B9E568A3689D420A
:1030C00002D0284600F04CFA656138BD8A42DED055
:1030D0001268DBE788040020A00400202DE9F047F7
:1030E000002A027C0CBF4FF010094FF0080919EAC2
:1030F000020F04460E460F462BD149EA0203D209BD
:1031000049D10374B9F1080F4BD04FF00008DFF834
:10311000F8A0534653F8185F9D4200D00DB9DAF875
:103120000C50DAF80830AB4202D0284600F018FA0A
:10313000B9F1100FCAF814500BD0204600F0B2FFBE
:10314000204600F05DFAB8F1000F02D02F48FFF7DB
:10315000C5FE2D4B9B68A3424FD1EFF30583002B97
:103160004BD1A289D20711D586F31188BFF36F8F97
:1031700083F31188BFF36F8F0423184602DFEFF348
:103180001187202383F31288BFF36F8F3846BDE881
:10319000F047FFF7D5BE03F07F03037401F073FF20
:1031A000B0E7A36813B1204601F075FF04F11800E1
:1031B00000F0EEFAA56D04F15808A84511D04FF0C3
:1031C000000A75B1284601F066FF05F1180000F00D
:1031D000DFFAC5F8ACA02846FFF7F6FEA56DA845B6
:1031E000EFD1094B9B689C428FD1EFF30588B8F172
:1031F000000818BF4FF0010889E786F31188BFF374
:103200006F8FBDE8F08700BF88040020B002002067
:1032100070B50F4D2B46064653F8184F9C4200D010
:1032200004B9EC68AB681A7CD20604D1DA897F2A2B
:1032300001D9A2692AB1A34202D0204600F090F938
:1032400023466B613046BDE87040FFF7FDBE00BF0E
:103250008804002070B5EFF31186202383F31288D1
:10326000BFF36F8F1A4CA168E0690B68814214BFED
:103270001A46002249680B605960A368E1692AB9BF
:10328000144AC3E900210B60E3610AE092F90E5091
:1032900093F90E00854216DD5168C3E900210B60E9
:1032A0005360A5690B4B9D4200D005B9E568A36842
:1032B0009D4202D0284600F053F965613046BDE8D2
:1032C0007040FFF73DBE8A42DAD01268D7E700BFF0
:1032D00088040020A0040020F8B5124B0C461146CB
:1032E000114A98681060DDE90676EFF3118220221A
:1032F00082F31288BFF36F8F9D68284601F0D5FED8
:10330000B6F1FF3F08BFB7F1FF3F06D007493A4685
:10331000334605F1180000F0A3F92046BDE8F84057
:10332000FFF70EBE88040020AC04002045510000C9
:10333000F8B50446EFF31187202383F31288BFF317
:103340006F8F037C03F01F02002A0CBF01260026AA
:1033500049B235D103F07F03037401F094FE294D87
:10336000037C817363F07F032A46037452F8183F8D
:10337000E869934207D1C4E900200460EC610DE0E4
:103380009842F8D01B68002BF5D093F90EC08C45FD
:10339000F6DD5968C4E900310C605C60AC699442A8
:1033A00000D004B9EC68AB689C4202D0204600F023
:1033B000D7F86C6187F31188BFF36F8F3046F8BD83
:1033C0009B071CD5856801F05EFE81732B689D42CA
:1033D00009D16B68C4E900531C606C60EAE76A6855
:1033E0009A42F6D01B68002BF3D093F90E208A4244
:1033F000F5DD5A68C4E9003214605C60DAE7817375
:10340000D8E700BF88040020F8B550EA010306465B
:103410000C4603D101F035FE0020F8BDEFF3118713
:10342000202383F31288BFF36F8F184D184BA868C1
:10343000186001F071FEA86816493246234618301C
:1034400000F00EF9AB681A7CC3F8A87042F00402D1
:103450001A746FF00A02C3F8AC200F4A536843F0A5
:10346000805353600446002383F31188BFF36F8FAA
:10347000AA68D2E90A12B2F1004F08BF9942CBD133
:1034800001F0A3FE201A20EAE070C6E788040020BD
:10349000AC0400204551000000ED00E0024B03F1B8
:1034A0001802C3E90622704788040020EFF3118157
:1034B000202383F31288BFF36F8F054B9A68D37B69
:1034C000013BD37381F31188BFF36F8F704700BF47
:1034D00088040020EFF31180202383F31288BFF3C8
:1034E0006F8F034B9A68D37B0133D373FFF790BE82
:1034F00088040020014B9868704700BF88040020B2
:10350000027C12F01F02034610D10A4988420DD0F6
:103510000949086868B1D9897F2909D893F90E202B
:10352000064B1B689A42B8BF0020704700207047C6
:10353000104670475001002014010020B004002004
:10354000044BC01A044BC0105843044B01221A54B8
:10355000704700BF60030020ABAAAAAABC040020E9
:1035600070B50C4B0C4C1E7CFFF7CAFF182303FBF5
:1035700006440546204600F00BF9084B00229A55F8
:103580003DB12A46EB1720460549BDE8704000F0E2
:1035900067B870BD8804002060030020BC040020D0
:1035A0004135000038B5EFF31185202383F31288ED
:1035B000BFF36F8F0F4B104A9C681068A04206D172
:1035C000FFF7CEFF85F31188BFF36F8F38BD002161
:1035D0001B7C1160094AD35C002BF3D02046FFF717
:1035E0008FFF0028EED0237CDB0601D1FFF740FDE2
:1035F0002046E5E788040020AC040020BC0400203D
:10360000EFF31181202383F31288BFF36F8F0A4AEF
:10361000136A834207D11B6F136281F31188BFF3D2
:103620006F8F70471346002BF7D01A6F8242F9D183
:10363000026F1A67F1E700BF88040020024B186888
:10364000984208BF0020704718010020034B1B68F8
:103650000BB9FEF79DBB0020704700BFB4040020EB
:10366000B3F1FF3F08BFB2F1FF3F2DE9F84F044629
:1036700099461546984600F081808160EFF31187E6
:10368000202383F31288BFF36F8FB9F1000FDFF8A7
:10369000F4A026DBFFF7DAFF3B4B1A68B2FA82F29E
:1036A00045194FEA521249EBE0795219DAE9005113
:1036B00049F10003C4E904235519064643EB010808
:1036C0004FF00109FFF7BAFFDFF8C0E0DEF804A011
:1036D0000346EBB9C4E900EACAF80040CEF804405A
:1036E00028E0DAE900126FF001035B1A4FF0FF31B6
:1036F00061EB02025B1B62EB0902012B72F100011C
:10370000BCBF01230022C0E904324FF00009D9E711
:10371000D3E9041CD4E904208A4270EB0C0B24DAB0
:10372000891A5A686CEB0000C3E90410C4E900323E
:1037300014605C60FFF782FF84420ED1124B1B685D
:103740005BB9B9F1000F02D1FFF780FF06463046A2
:1037500001F024FD0021FEF7EDFA87F31188BFF395
:103760006F8F28464146BDE8F88F521A60EB0C0077
:103770005345C4E90420ADD01B68AAE70025A8463C
:10378000EFE700BF78030020B404002018010020F8
:10379000F8B50246EFF31185202383F31288BFF3B7
:1037A0006F8F016851B3FFF749FF1C4B5B689A426A
:1037B00008D0D1E90434D2E90476DB1944EB0604DD
:1037C000C1E90434D2E90031002400264FF000475B
:1037D00090420B605960C2E90044C2E9046705D019
:1037E000002085F31188BFF36F8FF8BDFFF72EFF20
:1037F00001F0D4FC2146FEF79DFAF1E7D0E904136D
:10380000B3F1004F08BF012904D100204FF000415F
:10381000C2E904016FF01500E3E700BF18010020C2
:103820002DE9F84FDFF8BC902F4DC9F80000024693
:10383000FFF704FF0C4601264FF00047D5E900C111
:103840004FEAE27858B1D0E904AE524578EB0E0366
:103850001CDABAEB02036EEB0806C0E9043612EB81
:103860000C0241EB0801C5E9002100252846C9F8F2
:10387000005001F093FC2946FEF75CFA84F31188AE
:10388000BFF36F8FBDE8F84FFFF78CBE1AEB0C0348
:1038900041EBEA71C5E900314FF0000B4FF0200811
:1038A000D0E9011203680B605960C0E900BBC0E9B0
:1038B000046784F31188BFF36F8F9047EFF311848F
:1038C00088F31288BFF36F8FFFF7B8FE18B1D0E905
:1038D00004231343E4D0D9F80020A2EB0A02C9F86C
:1038E0000020ABE7B40400207803002010B5EFF30C
:1038F0001184202383F31288BFF36F8FFFF7A6FE96
:10390000054A0346D2E90001181841EBE37184F33C
:103910001188BFF36F8F10BD780300202DE9F04FA1
:103920008BB04368009383789C078046924640F1B1
:10393000F98000250878002800F0F68025280AD0B4
:103940004B1C019301354146009B98470028C0F26B
:10395000E3800199EEE74E788B1C252E0193F1D080
:103960000027B9463C460A221F2C22D8A6F1200384
:10397000102B20D8DFE803F0141F1F1A1F1F1F0B86
:103980001F1F1F121F171F1F090044F00104019B76
:1039900013F8016B0193002EE6D13AE044F00204E3
:1039A00044F00404F3E744F00804F0E744F01004A2
:1039B000EDE77F2C24D8A6F13003092B08D8600648
:1039C0004EBF02FB073702FB093944F02004DEE753
:1039D0002A2E0DD161065AF8043B53D4002BA7BF01
:1039E00044F020049946C3F1000944F02804CEE7CE
:1039F0002E2E05D1630600F1978044F04004C6E7FF
:103A00006C2E2ED028D8682E32D06A2E37D04C2E6D
:103A100035D0002F46F02003B8BF24F04004A3F1B6
:103A20006502BCBFA4B20027022A01D9612B2BD1A9
:103A30000AF1070A2AF0070A9C4E0AF1080A07272A
:103A4000210760D506EB070B34465C455DD1AE1B04
:103A5000A219A9EB070959E1742E98D07A2E96D0B5
:103A6000D7E7260648BF44F4007444F080048EE78C
:103A7000E00548BF44F4007444F4807487E744F4DC
:103A8000207484E71F4682E7A6F16302122A00F23F
:103A9000D880DFE812F013004D00D600D600D60023
:103AA000D6004D00D600D600D600D600D600E800DD
:103AB000D100D600D6001A00D600A0005AF8043B68
:103AC0008DF81030012704AEBAE75AF8046B784B32
:103AD000002E08BF1E4614F0400F14BF39464FF0A9
:103AE000FF31304601F09EFB0746A9E7009B4146A7
:103AF0002020984700280FDB013CA742F6D34D4415
:103B00002D1BA1469EE74C46F7E714F8010B009BDE
:103B100041469847002898DA98F8023043F00403A9
:103B200088F802304FF0FF3528460BB0BDE8F08F23
:103B3000220630D5A3052AD50AF1070A2AF0070381
:103B40009A4659685AF8080B24F0100B00291FFAFE
:103B50008BFB2FDA404261EB41014BF4806B04ACEC
:103B60000A23224601F06AFB1BF0400FA0EB04027F
:103B700000F08E802BF001049742A4B240F38F80B6
:103B8000002E40F08E802BF01104A4B21DE05AF8F4
:103B9000040BC117D8E7E0055AF8041B01D4084606
:103BA000F7E7A2054BBF48B208B241F3C01141F399
:103BB000C031C9E750EA0103D1D16306CFD5002F48
:103BC000CDD124F01104A4B23A463B4640F206415E
:103BD0000C4262D124E024F01004A4B20A2314F0B1
:103BE000800243D014F400711FBF0AF1070A2AF0C3
:103BF00007029246516814BF5AF8080B5AF8040B92
:103C000050EA01023ED124F0160B62061FFA8BFB2C
:103C10003CD5002F3AD124F01704A4B23A463B46D3
:103C200021075AD4E10705D5994572DDA9EB0303B5
:103C30009F184B469B464AE044F010041023782618
:103C4000CDE7782B04D1C6F1780343F01003C6E723
:103C5000009B4146252098470028FFF65DAF0235BE
:103C60004146304670E608230026B8E714F4807118
:103C70005AF8040BC4D014F400711ABFC0B2114634
:103C800080B2BDE724F006041FFA84FB04AC68E7A9
:103C900013465C46E10699D52EB90133C0E71346B9
:103CA000F8E73B46F6E70233BAE700BFDB5C00000B
:103CB000D45C0000CDE902324146009B20209847A9
:103CC0000028FFF629AFDDE902320BF1010BD945DF
:103CD000F0DCEB1A03EB0B055B46E10627D5CDE9DB
:103CE00002324146009B302098470028FFF614AF6F
:103CF000DDE902327EB901352F44791B8A4229DB86
:103D0000144604AE9CBB2A44A9EB03091546914412
:103D100042E017468EE7CDE9023202354146304691
:103D2000009B98470028DDE90232E5DAF4E640F22C
:103D300006410C42E0D014F0020F14BF2B202020CB
:103D400014F4806FCDE9023205F10105414618BF38
:103D50002D20E5E7CDE902324146009B302098470F
:103D60000028DDE9023205F10105C6DAD4E6013C9E
:103D7000CDE90232305D009B414698470028DDE9DD
:103D80000232BFDAC8E6009B41462020984700284F
:103D900005F10105FFF6C0AEA9EB0503002BF2DC2F
:103DA000D7E500BF704700EBC1004088400870476E
:103DB000F8B50346FFF7F7FFB0FA80F0C0F11F0037
:103DC00003EB800CCA00DCF81060171D0C460632AD
:103DD0008DB256B9012101FA00F0D9680143D960CA
:103DE000CCF81040DD539D52F8BDF1000431585A13
:103DF000D85303EBC0009E52C5805D52F4E7043AED
:103E00002DE9F843CC1D114424F0070421F00706E6
:103E1000A6EB04084FEAD807B7FA87F2C2F12405E7
:103E2000AD004FF000090735C2F12002ED08046033
:103E30004946A760C4F80C90920004F1100001F00C
:103E4000D6F9AAB2530043F0010363807B1B9BB2F7
:103E500004EBC5015800A4F80090488024F83520F0
:103E6000A6F8029024F8083004EBC70329465A88C4
:103E700042F001025A802046BDE8F843FFF798BFA0
:103E8000002070470FB407B504A951F8040B019145
:103E9000FCF784F903B05DF804EB04B07047038BC2
:103EA00013F0070306D10368002B18BF032008BFD7
:103EB00000207047022B05D1408BB0FA80F04009FA
:103EC00080007047012B04D10368002B18BF052028
:103ED000EDE70020704710B50C4600B111B96FF046
:103EE000150010BD081D00F0ABF80028F9D1A3683B
:103EF000032BF6D9F3E72DE9F0410D4607461946A5
:103F0000281D90461E4600F0ACF8044638B13346F2
:103F1000424629463846A446BDE8F0416047BDE820
:103F2000F08110B4EFF31182202484F31288BFF3E0
:103F30006F8F416110BC0121FCF748B938B50C46C0
:103F4000054658B151B10B6843B14B6833B11C22DF
:103F5000002101F04CF92C61002038BD6FF01500F4
:103F6000FBE7F8B504460E46FFF7B5FF051E3BDB41
:103F7000EFF31182202383F31288BFF36F8F638BDB
:103F8000278B4FF6FF718B4207F007072ED0062FC5
:103F90002FD8DFE807F0182E082E180418006FF04D
:103FA0008505002303E0013363830225012382F3A7
:103FB0001188BFF36F8FBBB100233A4631462046CC
:103FC000FFF799FF10E000233360636823B9C4E969
:103FD000006627B13D46E4E71E606660F9E702210E
:103FE0002046FCF7F3F83D462846F8BD6FF00A0579
:103FF000D7E76FF00405D4E710B5EFF31182202363
:1040000083F31288BFF36F8F048B04F00704022C34
:104010000AD0012C0CBF6FF004006FF0850082F312
:104020001188BFF36F8F08E0438B013B9BB2438342
:1040300023B92146FCF7CAF8204610BD2046EEE71A
:10404000034658B1426802F00302012A03D0032A52
:1040500004D1026812B10020986070476FF015001B
:1040600070474268816002F00302032A4FF00002A9
:1040700003460CBF006810465A607047704701F055
:10408000B6B801F0A6B801460068FCF7DBB908B580
:10409000FCF708FABDE80840FCF71EBD002101202E
:1040A000FCF7D0B96FF08500704761B662B680F357
:1040B0001188BFF36F8F704772B6002383F31188A6
:1040C000BFF36F8FBFF34F8F30BF62B6BFF36F8FF9
:1040D000704772B6002383F31188BFF36F8FBFF36D
:1040E0004F8F20BF80F31188BFF36F8F62B6704788
:1040F000202809D9B0F1004F08D80138B0FA80F073
:10410000C0F11F0040007047082070473E207047F4
:1041100008B5FCF7C3FE002008BD0369C9B20C2234
:1041200002FB0133186C00F00700704770B50346BE
:10413000C9B20069EFF31186202484F31288BFF31B
:104140006F8F0C2505FB0104246C14F0C00401D012
:10415000A24210D105FB010001220264002086F377
:104160001188BFF36F8F28B95B6803EBC1035B68ED
:104170009847002070BD4FF0FF30F0E78022FFF736
:10418000D5BFF8B5069F04690546C9B2EFF3118C97
:10419000202080F31288BFF36F8F0C2606FB0146A8
:1041A000306C00F0070EBEF1010F11D1376400260C
:1041B0008CF31188BFF36F8F46B90C2000FB0144CC
:1041C000C4E90E236B6853F8313098473046F8BD88
:1041D00000F0C00087420CBF6FF077064FF0FF364B
:1041E000E6E713B580240094FFF7CBFF02B010BDC3
:1041F00010B40069CBB21C2404FB0300002110BCE6
:1042000010471046FEF79ABD00F0DDBAFDF788BFF3
:1042100043685B68D3F810350B6000207047436833
:104220005B6802EA010021EA0201C3F80805C3F84D
:104230000C150020704743685B680020C3F8081520
:10424000704743685B680020C3F80C1570474368EB
:104250005B68D3F8042521EA02001140C3F8080581
:10426000C3F80C150020704730B50369586800B3D7
:104270000024884219D108688CB99C685860A14212
:1042800000D19860002008602AB15A680A609A68D4
:10429000596002B9996000200FE02846E9E72060E4
:1042A0009868814208BF9C60ECE705680446002DD1
:1042B000F3D1002AE9D16FF0150030BDFEF740B808
:1042C00037B50446002201210320FCF769FB63682F
:1042D0005D6901AA0021284600F0F2F800280DDBF4
:1042E000019B2A6819791868FDF786F9002805DB13
:1042F000204603B0BDE8304000F071B803B030BDD7
:1043000002780B69012A07D0022A08D052B95A66EE
:1043100003F15400FEF712BD6FF00402F7E76FF0EF
:104320000A02F4E76FF08B02F1E72DE9F04F05691F
:1043300085B006460C469046039305F144094FF0BC
:10434000FF324FF0FF334846FEF72CFD05F1540ACB
:10435000002200235046FEF725FD284600F0A4FD6C
:10436000002708F1FF3BB84501D8002323E0BB45F7
:1043700081BF237DC3F3800383F00103DBB298BFC9
:1043800000230193039B0093D4E90023217A304654
:1043900000F067F8034670B94FF48042002350469E
:1043A000FEF700FD98B12846FEF7EAF9304600F026
:1043B00034F86FF0730328460393FEF7E1F948469B
:1043C000FEF7BCFC039B184605B0BDE8F08F6B6E92
:1043D0000C340BB90137C6E76FF00403EBE7416813
:1043E00003460A690069FEF76DB9CA07036905D477
:1043F000C1F34202012A04D0022A0AD06FF015004C
:1044000070471A684FF0CC70C2F824051964002078
:1044100070471A684FF0CD60F6E7F7B50569466852
:104420002B68D3F80845D3F80C752846FEF7A8F991
:1044300039462046FEF722FA7669044601AA002191
:10444000304600F03DF8002805DB019B3268197901
:104450001868FDF7D1F8284600F026FD204603B085
:10446000F0BD2DE9F04186B00C4607699DF8348017
:104470001546002112220DF106001E4600F0B7FE7F
:10448000BDF830208DF8052004F0010314F0080277
:104490008DF80430029604950FD1A10704D4B8F129
:1044A000000F08D14BB9202201A93846FEF77EF94A
:1044B00006B0BDE8F0814022F6E76FF08500F7E72F
:1044C00030B543681360057A446804EBC504A34221
:1044D00002D36FF0010030BD5C798C4203F1080318
:1044E000F0D10020F7E743681B68D3F88004C3F8D5
:1044F0008004704742681368D3F8100150B1D26944
:10450000002012780A70C3F81001D3F8102101229C
:104510001A6070474FF0FF30704702680346D2F8C8
:10452000580140B95B68DB0706D4D2F82001003897
:1045300018BF012070470120704743681B68D3F8FB
:104540000423D20517D5D3F82021A2B1EFF31182AD
:10455000202181F31288BFF36F8FD3F8201131B17E
:104560000021C3F82011D3F820110121D96082F372
:104570001188BFF36F8FD3F85831704713B501AA74
:104580000446FFF79DFF002805DB019B226819798F
:104590001868FDF731F802B010BDF8B500220546E5
:1045A00001210220FCF7FCF90220FCF7DDF96C6820
:1045B0000121E068FFF7E2FF6B681A682369C2F81F
:1045C0002435617D237D0B43A17D0B43C2F86C35FF
:1045D0006E68D6E9004313F001030ED02F6904F191
:1045E0000C0107F1080204F5907000F097F800281C
:1045F0003ADB387AFDF7C8FC01230822C4F800250D
:10460000B269C4F8442501210022C4F84825A160FC
:104610006BB9D4F82031002BFBD0C4F82021D4F89A
:1046200020310123E3604FF48073C4F80433D4F8DD
:104630005831002BFBD00021C4F800156D682C68A0
:10464000E868FFF79BFF0823C4F800352A7A52B9BF
:10465000EB69C4F834350123C4F83835C4F81021A7
:10466000D4F8102123600020F8BD00F150039B0016
:104670009BB203F1804303F5883300221A601B6864
:1046800070474FF08053D3F83021082A03BFD3F886
:104690003401B0FA80F04009002070470346002042
:1046A000184700F071BC10B502461168B1B1BFF3F4
:1046B0005B8FB1FA81F3C3F11F000123834021EA2C
:1046C000030352E8004F8C4204D142E8003CBCF1A5
:1046D000000FF6D1BFF35B8FE7D110BD6FF00B0079
:1046E000FBE710B50368CB40DB0714D401238B40F4
:1046F0000268BFF35B8F43EA020150E8004F944227
:1047000004D140E8001CBCF1000FF6D1BFF35B8F71
:10471000EED1002010BD6FF01500FBE770B50C4620
:104720000021054608461646FDF720FC48B93378B7
:10473000DB0003F1804303F5F833C3F81055C3F8E9
:10474000144570BD10B1012802D07047FDF7E8BCD8
:10475000FDF798BC18B1012803D100F019B800F09A
:1047600032B8704708B5FDF7A9FCBDE80840FDF771
:1047700017BD4FF08053D3F83021082A06D1D3F863
:10478000340102288CBF00200120704700207047B0
:10479000FDF73EBC38B54FF080440223C4F808331F
:1047A0000123E3600023C4F80431D4F8043142F259
:1047B0001075D4F81834DB0304D50120FFF771FF1E
:1047C000013DF6D138BDFFF7E5BFF7B5019001A86F
:1047D000DDE9084716461D46FDF71AFD019BB6F1B7
:1047E000000C18BF4FF0010C00EB83000B1E18BF2C
:1047F0000123002D43EA4C030CBF4FF0000C4FF097
:104800000C0C002C43EA0C030CBF4FF0000C4FF4CF
:10481000E06C002F43EA0C03D0F800270CBF4FF0E8
:10482000000C4FF4403C43EA0C0322EA030301B1BD
:1048300009780EB13678760019430DB12D78AD00A8
:1048400031430CB12478240229430FB13F783F044F
:104850000C433C43C0F8004703B0F0BD1FB50DF159
:104860000F03019300238DF80F1000931A46194689
:10487000FFF7ABFF05B05DF804FB10B50446084632
:10488000FDF7D6FC04EB4004207DC0F3401010BDC2
:1048900010B504460846FDF7CBFC04EB4004207D30
:1048A000C0F3400010BD10B504460846FDF7C0FC3B
:1048B00004EB4004A08A400B10BD70B504460846C6
:1048C0001646FDF7B5FC08300D4634F81030DA0511
:1048D00009D5C3F3432304EBC302314654F8333004
:1048E000526828469847A3682BB1E26831462846AB
:1048F000BDE87040184770BD10B504460846FDF786
:1049000097FC04EB4000838ADA051DD5C3F34321ED
:1049100023F4F853838204F1120204F1720032F896
:10492000023F13F4807F03D0C3F3432399420BD09B
:104930008242F4D104EBC10300225A6004F17800F2
:10494000BDE81040FFF7CDBE10BDF0B5034600F541
:104950008074002005460127844695420AD1D3F889
:104960007C2132B10022C3F87C21D3F87C3140F0A5
:104970000040F0BD25F0404607FA06F6314209D066
:10498000D4F800E0BEF1000F04D0C4F800C0D4F8A1
:1049900000E0304301350434DFE738B504460D4606
:1049A000FFF76BFFA8B12046FFF772FF88B92046DA
:1049B000FFF779FF226801238340C2F80833236898
:1049C00003EB8000D0F8103523F00303C0F8103556
:1049D00038BD28460021BDE83840FFF73FBF2DE92C
:1049E000F043174685B004460846FDF721FCD7F88A
:1049F00000800E460546B8F1000F1ED02046FFF796
:104A000047FF18B12046FFF738FF20BB0023CDE950
:104A100000338DF80E308DF80F300DF10F02434644
:104A20000DF10E013046FFF7D0FE04EB4502938AEC
:104A300023F0020343F0010393827B689BB331466A
:104A4000204693F80080D3F80490FFF721FF28B1A7
:104A5000B9F1000F1FD06FF0150027E004EB4500FF
:104A6000838A23F4604323F020038382B9F1000F8B
:104A700011D0B8F1030FEED87B6821685B6893F81A
:104A800000C04FEA8C031944B8F1000F11D1C1F8EE
:104A90001085C1F8108504EB4502938A23F01C03AE
:104AA00043EA88039382BB6843BB002005B0BDE89E
:104AB000F083D1F8102522F00302C1F810252268F6
:104AC0001344D3F8102522F44F3222F44072C3F875
:104AD00010253202D3F8101502F47C5242EA084243
:104AE0000A43C3F8102504EB4C03A3F87C60838AC7
:104AF00043EA4C3343F020038382CCE7D3E90078C8
:104B000031462046FFF7F8FE002FCED063689F4263
:104B100006D004F17800FFF7C6FD002804DAC5E7E7
:104B2000A3689845F5D1002004EBC003C3E90178E0
:104B300004EB4505C0B2AB8A43EA402343F48073DB
:104B4000AB82B2E72DE9F043054685B0084616462C
:104B50001F46FDF76DFB0C46804626B32846FFF73F
:104B600097FE18B92846FFF788FE18BB05EB4809E1
:104B7000B9F8143003F01C0313B17378012B19D06A
:104B800001238DF80F300023CDE90063721CB31CA4
:104B90000DF10F012046FFF718FEB9F8143043F06D
:104BA0000303A9F81430002F3FD021462846FFF711
:104BB0006FFE20B96FF0150005B0BDE8F0833E78B8
:104BC0002B6803EB86030022C3F81025C3F81025D9
:104BD00005EB48024FEA860C938A23F4604323F0E6
:104BE00020039382787800B32968BF786144000479
:104BF000D1F8103523F4991323F4F853C1F8103584
:104C0000230200F4403003F47C5303433805D1F809
:104C1000105500F4801003432B43C1F81035938ADC
:104C200043EA463343F0200393820020C4E7C0E9FF
:104C30000312704770B504461546FFF71EFE48B1D3
:104C40000846FDF7F5FA04EB40040020A38A5B0B4D
:104C50002B7070BD6FF01500FBE738B590F88C40F5
:104C600005469CB960222146143000F0C0FA28683D
:104C7000C0F87C41D0F87C3140F30730FBF774FE7C
:104C8000012385F88C30AB67204638BD6FF0770084
:104C9000FBE790F88C00003818BF01207047FDF743
:104CA00001BB2DE9F34104461746FFF7E6FD0D462B
:104CB0002668F0B12046FFF7EBFD8046C8B92046D4
:104CC000FFF7F1FD820002F5807346F80380F35888
:104CD00023681344D3F8102542F00102C3F81025CD
:104CE00027B1226801238340C2F8043302B0BDE833
:104CF000F081D6F80433002BA4BF4FF00043C6F870
:104D000004332846FDF794FA04EB4004A38AC3F366
:104D10008203042B12D0052B12D001A80195FDF7B8
:104D200077FA019BD0F81015D94001F0010102314A
:104D3000284602B0BDE8F041FFF790BD0321F7E738
:104D40000221F5E7FFF729BE30B5D0F804312BB1C9
:104D50000023C0F80431D0F80431012391F82F204A
:104D600022B30022C0F82421D0F82441C0F81C212D
:104D7000D0F81C41C0F80821D0F80821002B79D0C8
:104D8000002281F82D2091F82F20002A37D14D6B79
:104D90008C6AA5421FBF0523C0F80025C0F8003566
:104DA000134683F0010381F82F3028E0D0F8244126
:104DB00014B1C0F824210EE0D0F81C216AB3C0F869
:104DC0001C41D0F81C214A6B01324A63D0F82451AF
:104DD00045B1C0F82441D0F824210122426181F874
:104DE0002F20CBE78C6AA24204D24C6AA25CC0F8A6
:104DF0001C25C3E791F82C201AB10123C3610020C0
:104E000030BD0A6A12F0400F4FF0010203D0C261B8
:104E100081F82D20F3E74261B0E7D0F80841002C7B
:104E2000ACD0C0F80821D0F80841D0F82441002CBB
:104E3000BFD14A6B8C6AA242A0D24C6AD0F81855F6
:104E4000A5544A6B8C6A0132651EAA424A6308D196
:104E50000A6A540602D40222C0F800220122026229
:104E60008CE7A242FAD10A6A520687D5022381F85A
:104E70002D30C4E70120C3E7CB7B10B433B9D1E9AF
:104E800000420368C3F80845C3F80C2503688A6824
:104E9000C3F8242543682BB1006810BC40F30730E9
:104EA000FBF762BD10BC704703680522C3F80025FC
:104EB000022380F8323070472DE9F041014686B078
:104EC00051F8048B04464046FFF73EFF002847D1C7
:104ED00094F8335005BB227C931E012B1CD8A06A8A
:104EE000E369984218D1236AA362A369E36294F844
:104EF000243084F83150C3F34013032A84F830304F
:104F0000404604D106B0BDE8F041FDF7FFBA06B057
:104F1000BDE8F041FDF770BB04F110070FCF01AE03
:104F20000FC63B68336065B1D8F8C454C8F8C454A0
:104F3000A90718D46A0718D405F00105C5F10405BE
:104F4000EDB2002384F83430636A8DF800505B07BB
:104F500002D594F833301BB1D4E901316846984743
:104F600006B0BDE8F0810125EBE70225E9E707B5CA
:104F7000019001A8FDF772FC019A01239340C0F84B
:104F8000083503B05DF804FB08B1FBF7C9BF7047F3
:104F900010B5436904463BB90020E268537843F0FA
:104FA00001035370404210BD98470028F4D00028F8
:104FB000B8BF4042E368FF28A8BFFF201870ECE7A5
:104FC00040B1C368587810F001001EBF1878B0FADD
:104FD00080F040097047EFF31183202383F3128898
:104FE000BFF36F8FFEE708B5FFF7F5FF08B5202484
:104FF000EFF3118384F31288BFF36F8FFFF75CF830
:10500000F6E790F90E308B4201D0FEF791B90020FF
:10501000704703460020C3E90200C3E9003370472C
:105020003AB18A4205D3C0E90212C0E9000000206B
:1050300070476FF015007047EFF30580003818BF18
:105040000120704738B58589EFF31181202282F362
:105050001288BFF36F8F037C13F0080404D081F330
:105060001188BFF36F8F38BD0122FEF737F8EB07C9
:10507000F9D584F31188BFF36F8F0423184602DF3C
:10508000F1E7FEF7E7B8D0E9003213605A60002379
:10509000C0E90033704708B5FFF7F5FF037C23F044
:1050A000020303740023836008BD38B504460D462F
:1050B000FDF760FF237C43F002032374D5B1A560A4
:1050C0002B689D4209D16B68C4E900531C606C6079
:1050D00010E06A689A42F6D01B68002BF3D093F96F
:1050E0000E1094F90E209142F3DD5A68C4E90032A3
:1050F00014605C6038BD10B5EFF31184202383F396
:105100001288BFF36F8FFDF75FFF84F31188BFF341
:105110006F8F10BDFDF758BFFDF72CBF08B5037C9E
:1051200013F0280F01460CD183680BB1FFF7B3FFD2
:105130000B7C23F004030B740846BDE80840FDF720
:1051400043BF08BD10B5EFF31184202383F3128809
:10515000BFF36F8F1838FFF7E1FF84F31188BFF3B7
:105160006F8F10BD0846FDF76FBF38B50C4605467A
:10517000FEF74AF9B4F1FF3F08BFB5F1FF3F1FBF8B
:1051800047F6FF7300224FF47A71E0FB01321ABF39
:10519000D80B40EA42404FF0FF3038BD08B5024618
:1051A000FEF74CFA70B1D0E904319B1A61EBE27260
:1051B000B3F1004F72F1000104DA002AACBF1846C7
:1051C000002008BD6FF00040FBE708B5FEF78EFB3E
:1051D00008BD0A44914200F1FF3300D1704710B579
:1051E00011F8014B03F8014F9142F9D110BD02446F
:1051F0000346934200D1704703F8011BF9E710B54D
:105200000139034632B111F8014F03F8014B013A5D
:10521000002CF7D11A440021934200D110BD03F8AD
:10522000011BF9E710B5024601448A42134603D038
:105230001C780132002CF8D1181A10BDF0B5C3F15A
:1052400037070446FFB203F01F031046082BE6B2EF
:1052500033D0102B3ED06508A40844EA817445EA97
:10526000C1752D194FEA910242EB5102290941EA19
:1052700002716D1842EB1212290A41EA02616D189F
:1052800042EB1222290C41EA02416D1842EB124214
:10529000AD1842F10002EC0844EA4274D10804EB74
:1052A0008402A6EB4205EDB2092D0CD90134A5F11B
:1052B0000A0541F10001EDB212E0E40844EA41744C
:1052C00006F00705C908303554EA010200F8015B11
:1052D000BCD1F0BD240944EA017406F00F050909A8
:0C52E000092D84BFED19EDB2EDE70000D0
:1052EC00450F000000000000E90E00000000000067
:1052FC00000000004C53000000000000845300002C
:10530C00000000006853000000000000A0530000E3
:10531C008112000000000000D51B000000000000FE
:10532C00C50E00000000000000000000BC5300008F
:10533C0000000000D85300007501000000000000C0
:10534C00765C000080560000CC5500002001002047
:10535C00BC030020D90F000000000000855C000099
:10536C00905600007455000022010020100400200B
:10537C00A114000000000000935C0000A456000083
:10538C0074550000240100201C040020A11400000E
:10539C0000000000BC5C0000FC560000E85500005A
:1053AC002A010020540400209B450000000000004E
:1053BC00A15C0000B85600009855000026010020A2
:1053CC00A4000020C142000000000000AE5C000000
:1053DC0000000000B0550000280100202804002027
:0853EC00691800000000000038
:1053F400654700009D460000000000009D4000003D
:10540400A05300003B450000A4000020B94E00005A
:10541400000000009D400000000000009D400000CE
:1054240014000020BD420000000000009D40000068
:10543400000000009D400000000000009D400000AE
:10544400000000009D400000000000009D4000009E
:10545400D8530000D9170000000000009D40000050
:10546400000000009D400000000000009D4000007E
:10547400000000009D40000000000000651C0000CA
:10548400000000009D400000000000009D4000005E
:10549400000000009D400000000000009D4000004E
:1054A400000000009D400000000000009D4000003E
:1054B400000000009D400000000000009D4000002E
:1054C400000000009D400000000000009D4000001E
:1054D400000000009D400000000000009D4000000E
:1054E400000000009D400000000000009D400000FE
:1054F400000000009D400000000000009D400000EE
:10550400000000009D400000000000009D400000DD
:10551400000000009D400000000000009D400000CD
:10552400000000009D400000000000009D400000BD
:10553400000000009D400000000000009D400000AD
:10554400000000009D400000000000009D4000009D
:10555400000000009D400000000000009D4000008D
:10556400000000009D400000000000009D4000007D
:10557400D1120000114200001F4200003742000017
:10558400434200004F420000DD1400006942000065
:1055940000000000EB430000000000002B4300006B
:1055A40000000000000000001B4400000000000098
:1055B4000000000000000000F1170000AD1700001B
:1055C4000000000000000000311000007D410000D8
:1055D400E3410000000000001B4100000000000047
:1055E40000000000F5440000A9180000E744000092
:1055F400040000000F00000001000000080000008B
:105604002000000060000000700000001000000096
:105614000C0000000E0000005000000074000000A8
:10562400A8000000FFFFFFFFFFFFFFFFFFFFFFFFDA
:04563400FFFFFFFF76
:105640000338FDD870470000000000200000000073
:1056500000000B06020000005C5600000000000085
:10566000675C000026000206000000206F5C00005E
:1056700022000B11950F0000650F000000000000D4
:10568000E1100000611000000D420000094200001E
:10569000FFFF000000030050140000200000000085
:1056A00001000000BCF801FF0000005014000020C1
:1056B00000000000000000000000000000000000EA
:1056C000000098010000010101430000D0560000D5
:1056D00000300040DC56000002000000F4560000DC
:1056E00002000000EC560000020100001A80000CCD
:1056F0001B80000B1A00000C1B00000B0020004058
:1057000001000000000000001C5700000000D6014E
:1057100000000000BA040020B9040020002000406E
:105720002857000002000000485700000400000055
:1057300038570000040100000880000105800002C5
:105740000780000306860000060000000500000236
:10575000080600010706000308000000030000001F
:10576000EC520000F4520000245300002C530000BF
:10577000445300004C530000565220547261636B36
:1057800065722041707020496E697469616C697A34
:10579000696E672E2E2E0A004572726F723A204291
:1057A00075696C742D696E204C454420646576697A
:1057B0006365206973206E6F742072656164790A75
:1057C000004572726F723A20436F756C64206E6F81
:1057D0007420636F6E666967757265204C4544205E
:1057E00070696E20282564290A0053756363657308
:1057F000732120565220547261636B65722062617E
:1058000073656C696E6520636F64652072756E6E7A
:10581000696E6720736D6F6F74686C792E0A002A49
:105820002A2A20426F6F74696E67205A6570687902
:1058300072204F53206275696C642076342E342EAA
:10584000302D323030362D673335343534643434CE
:1058500035383937202A2A2A0A0072302F61313A26
:105860002020307825303878202072312F61323A6C
:105870002020307825303878202072322F61333A5A
:1058800020203078253038780A0072332F61343A7E
:105890002020307825303878207231322F69703AE4
:1058A0002020307825303878207231342F6C723ACD
:1058B00020203078253038780A0020787073723ACA
:1058C00020203078253038780A004661756C74697C
:1058D0006E6720696E737472756374696F6E206190
:1058E00064647265737320287231352F7063293AAE
:1058F000203078253038780A00556E68616E646C07
:105900006564204952516E3A2025640A002A2A2AE9
:105910002A2A204D5055204641554C54202A2A2AE7
:105920002A2A0A002020537461636B696E67206520
:1059300072726F722028636F6E7465787420617262
:105940006561206D69676874206265206E6F7420E0
:1059500076616C6964290A002020556E7374616356
:105960006B696E67206572726F720A002020446155
:105970007461204163636573732056696F6C617451
:10598000696F6E0A0020204D4D46415220416464EB
:10599000726573733A20307825780A002020496EAA
:1059A000737472756374696F6E204163636573739A
:1059B0002056696F6C6174696F6E0A002020466C16
:1059C0006F6174696E672D706F696E74206C617A97
:1059D0007920737461746520707265736572766185
:1059E00074696F6E206572726F720A002A2A2A2A01
:1059F0002A205553414745204641554C54202A2AD8
:105A00002A2A2A0A0020204469766973696F6E2069
:105A10006279207A65726F0A002020556E616C6988
:105A2000676E6564206D656D6F7279206163636573
:105A300073730A0020204E6F20636F70726F63656E
:105A400073736F7220696E737472756374696F6EAD
:105A5000730A002020496C6C6567616C206C6F6173
:105A600064206F66204558435F52455455524E207E
:105A7000696E746F2050430A002020496C6C656782
:105A8000616C20757365206F6620746865204550D1
:105A900053520A002020417474656D707420746F35
:105AA000206578656375746520756E646566696EDA
:105AB000656420696E737472756374696F6E0A0031
:105AC0002A2A2A2A2A20425553204641554C54203E
:105AD0002A2A2A2A2A0A002020537461636B696EDD
